{
  "contractName": "Query",
  "abi": [
    {
      "inputs": [
        {
          "internalType": "uint256",
          "name": "ind",
          "type": "uint256"
        }
      ],
      "name": "get",
      "outputs": [
        {
          "components": [
            {
              "internalType": "string",
              "name": "date",
              "type": "string"
            },
            {
              "internalType": "string",
              "name": "state",
              "type": "string"
            },
            {
              "internalType": "uint256",
              "name": "gender",
              "type": "uint256"
            },
            {
              "internalType": "uint256",
              "name": "age_group",
              "type": "uint256"
            }
          ],
          "internalType": "struct Query.row",
          "name": "",
          "type": "tuple"
        }
      ],
      "stateMutability": "view",
      "type": "function",
      "constant": true
    },
    {
      "inputs": [
        {
          "internalType": "string",
          "name": "a",
          "type": "string"
        },
        {
          "internalType": "string",
          "name": "b",
          "type": "string"
        }
      ],
      "name": "compareStrings",
      "outputs": [
        {
          "internalType": "bool",
          "name": "",
          "type": "bool"
        }
      ],
      "stateMutability": "view",
      "type": "function",
      "constant": true
    },
    {
      "inputs": [
        {
          "internalType": "string",
          "name": "date",
          "type": "string"
        },
        {
          "internalType": "string",
          "name": "state",
          "type": "string"
        },
        {
          "internalType": "uint256",
          "name": "gender",
          "type": "uint256"
        },
        {
          "internalType": "uint256",
          "name": "age_group",
          "type": "uint256"
        }
      ],
      "name": "insert",
      "outputs": [],
      "stateMutability": "nonpayable",
      "type": "function"
    },
    {
      "inputs": [
        {
          "internalType": "string",
          "name": "state",
          "type": "string"
        }
      ],
      "name": "getbystate",
      "outputs": [
        {
          "components": [
            {
              "internalType": "string",
              "name": "date",
              "type": "string"
            },
            {
              "internalType": "string",
              "name": "state",
              "type": "string"
            },
            {
              "internalType": "uint256",
              "name": "gender",
              "type": "uint256"
            },
            {
              "internalType": "uint256",
              "name": "age_group",
              "type": "uint256"
            }
          ],
          "internalType": "struct Query.row[]",
          "name": "",
          "type": "tuple[]"
        }
      ],
      "stateMutability": "view",
      "type": "function",
      "constant": true
    },
    {
      "inputs": [
        {
          "internalType": "string",
          "name": "state",
          "type": "string"
        },
        {
          "internalType": "uint256",
          "name": "gender",
          "type": "uint256"
        }
      ],
      "name": "getbystateandgender",
      "outputs": [
        {
          "components": [
            {
              "internalType": "string",
              "name": "date",
              "type": "string"
            },
            {
              "internalType": "string",
              "name": "state",
              "type": "string"
            },
            {
              "internalType": "uint256",
              "name": "gender",
              "type": "uint256"
            },
            {
              "internalType": "uint256",
              "name": "age_group",
              "type": "uint256"
            }
          ],
          "internalType": "struct Query.row[]",
          "name": "",
          "type": "tuple[]"
        }
      ],
      "stateMutability": "view",
      "type": "function",
      "constant": true
    },
    {
      "inputs": [
        {
          "internalType": "string",
          "name": "state",
          "type": "string"
        },
        {
          "internalType": "uint256",
          "name": "gender",
          "type": "uint256"
        }
      ],
      "name": "optimized",
      "outputs": [
        {
          "components": [
            {
              "internalType": "string",
              "name": "date",
              "type": "string"
            },
            {
              "internalType": "string",
              "name": "state",
              "type": "string"
            },
            {
              "internalType": "uint256",
              "name": "gender",
              "type": "uint256"
            },
            {
              "internalType": "uint256",
              "name": "age_group",
              "type": "uint256"
            }
          ],
          "internalType": "struct Query.row[]",
          "name": "",
          "type": "tuple[]"
        }
      ],
      "stateMutability": "view",
      "type": "function",
      "constant": true
    }
  ],
  "bytecode": "0x608060405234801561001057600080fd5b5061167e806100206000396000f3fe608060405234801561001057600080fd5b506004361061007f576000357c01000000000000000000000000000000000000000000000000000000009004806364ce3d1a146100845780639507d39a146100b4578063ae725326146100e4578063aed6c92b14610114578063bd3bdd4814610144578063bed34bba14610160575b600080fd5b61009e600480360381019061009991906110ec565b610190565b6040516100ab91906114a5565b60405180910390f35b6100ce60048036038101906100c99190611280565b6103dd565b6040516100db91906114e2565b60405180910390f35b6100fe60048036038101906100f9919061122c565b610562565b60405161010b91906114a5565b60405180910390f35b61012e6004803603810190610129919061122c565b610844565b60405161013b91906114a5565b60405180910390f35b61015e60048036038101906101599190611199565b610dcb565b005b61017a6004803603810190610175919061112d565b610f35565b60405161018791906114c7565b60405180910390f35b606060006002836040516101a4919061148e565b90815260200160405180910390208054905090506060816040519080825280602002602001820160405280156101f457816020015b6101e1610f8e565b8152602001906001900390816101d95790505b50905060008090505b828110156103d25760046000600287604051610219919061148e565b9081526020016040518091039020838154811061023257fe5b90600052602060002001548152602001908152602001600020604051806080016040529081600082018054600181600116156101000203166002900480601f0160208091040260200160405190810160405280929190818152602001828054600181600116156101000203166002900480156102ef5780601f106102c4576101008083540402835291602001916102ef565b820191906000526020600020905b8154815290600101906020018083116102d257829003601f168201915b50505050508152602001600182018054600181600116156101000203166002900480601f0160208091040260200160405190810160405280929190818152602001828054600181600116156101000203166002900480156103915780601f1061036657610100808354040283529160200191610391565b820191906000526020600020905b81548152906001019060200180831161037457829003601f168201915b50505050508152602001600282015481526020016003820154815250508282815181106103ba57fe5b602002602001018190525080806001019150506101fd565b508092505050919050565b6103e5610fb6565b60046000838152602001908152602001600020604051806080016040529081600082018054600181600116156101000203166002900480601f01602080910402602001604051908101604052809291908181526020018280546001816001161561010002031660029004801561049c5780601f106104715761010080835404028352916020019161049c565b820191906000526020600020905b81548152906001019060200180831161047f57829003601f168201915b50505050508152602001600182018054600181600116156101000203166002900480601f01602080910402602001604051908101604052809291908181526020018280546001816001161561010002031660029004801561053e5780601f106105135761010080835404028352916020019161053e565b820191906000526020600020905b81548152906001019060200180831161052157829003601f168201915b50505050508152602001600282015481526020016003820154815250509050919050565b6060806000546040519080825280602002602001820160405280156105a157816020015b61058e610f8e565b8152602001906001900390816105865790505b509050600080905060008090505b600054811015610838578460046000838152602001908152602001600020600201541480156106925750610691600460008381526020019081526020016000206001018054600181600116156101000203166002900480601f0160208091040260200160405190810160405280929190818152602001828054600181600116156101000203166002900480156106865780601f1061065b57610100808354040283529160200191610686565b820191906000526020600020905b81548152906001019060200180831161066957829003601f168201915b505050505087610f35565b5b1561082b5760046000828152602001908152602001600020604051806080016040529081600082018054600181600116156101000203166002900480601f01602080910402602001604051908101604052809291908181526020018280546001816001161561010002031660029004801561074e5780601f106107235761010080835404028352916020019161074e565b820191906000526020600020905b81548152906001019060200180831161073157829003601f168201915b50505050508152602001600182018054600181600116156101000203166002900480601f0160208091040260200160405190810160405280929190818152602001828054600181600116156101000203166002900480156107f05780601f106107c5576101008083540402835291602001916107f0565b820191906000526020600020905b8154815290600101906020018083116107d357829003601f168201915b505050505081526020016002820154815260200160038201548152505083838060010194508151811061081f57fe5b60200260200101819052505b80806001019150506105af565b50819250505092915050565b60606000600284604051610858919061148e565b908152602001604051809103902080549050905060006001600085815260200190815260200160002080549050905080821015610ae2576060826040519080825280602002602001820160405280156108cb57816020015b6108b8610f8e565b8152602001906001900390816108b05790505b50905060008060008090505b85811015610ad4576002896040516108ef919061148e565b9081526020016040518091039020818154811061090857fe5b906000526020600020015492508760046000858152602001908152602001600020600201541415610ac75760046000848152602001908152602001600020604051806080016040529081600082018054600181600116156101000203166002900480601f0160208091040260200160405190810160405280929190818152602001828054600181600116156101000203166002900480156109ea5780601f106109bf576101008083540402835291602001916109ea565b820191906000526020600020905b8154815290600101906020018083116109cd57829003601f168201915b50505050508152602001600182018054600181600116156101000203166002900480601f016020809104026020016040519081016040528092919081815260200182805460018160011615610100020316600290048015610a8c5780601f10610a6157610100808354040283529160200191610a8c565b820191906000526020600020905b815481529060010190602001808311610a6f57829003601f168201915b5050505050815260200160028201548152602001600382015481525050848380600101945081518110610abb57fe5b60200260200101819052505b80806001019150506108d7565b508295505050505050610dc5565b606081604051908082528060200260200182016040528015610b1e57816020015b610b0b610f8e565b815260200190600190039081610b035790505b50905060008060008090505b84811015610dbb57600160008981526020019081526020016000208181548110610b5057fe5b90600052602060002001549250610c15600460008581526020019081526020016000206001018054600181600116156101000203166002900480601f016020809104026020016040519081016040528092919081815260200182805460018160011615610100020316600290048015610c0a5780601f10610bdf57610100808354040283529160200191610c0a565b820191906000526020600020905b815481529060010190602001808311610bed57829003601f168201915b50505050508a610f35565b15610dae5760046000848152602001908152602001600020604051806080016040529081600082018054600181600116156101000203166002900480601f016020809104026020016040519081016040528092919081815260200182805460018160011615610100020316600290048015610cd15780601f10610ca657610100808354040283529160200191610cd1565b820191906000526020600020905b815481529060010190602001808311610cb457829003601f168201915b50505050508152602001600182018054600181600116156101000203166002900480601f016020809104026020016040519081016040528092919081815260200182805460018160011615610100020316600290048015610d735780601f10610d4857610100808354040283529160200191610d73565b820191906000526020600020905b815481529060010190602001808311610d5657829003601f168201915b5050505050815260200160028201548152602001600382015481525050848380600101945081518110610da257fe5b60200260200101819052505b8080600101915050610b2a565b5082955050505050505b92915050565b610dd3610fb6565b84816000018190525083816020018190525082816040018181525050818160600181815250508060046000805481526020019081526020016000206000820151816000019080519060200190610e2a929190610fde565b506020820151816001019080519060200190610e47929190610fde565b506040820151816002015560608201518160030155905050600284604051610e6f919061148e565b90815260200160405180910390206000549080600181540180825580915050600190039060005260206000200160009091909190915055600160008481526020019081526020016000206000549080600181540180825580915050600190039060005260206000200160009091909190915055600360008381526020019081526020016000206000549080600181540180825580915050600190039060005260206000200160009091909190915055600160008082825401925050819055505050505050565b600081604051602001610f48919061148e565b6040516020818303038152906040528051906020012083604051602001610f6f919061148e565b6040516020818303038152906040528051906020012014905092915050565b6040518060800160405280606081526020016060815260200160008152602001600081525090565b6040518060800160405280606081526020016060815260200160008152602001600081525090565b828054600181600116156101000203166002900490600052602060002090601f016020900481019282601f1061101f57805160ff191683800117855561104d565b8280016001018555821561104d579182015b8281111561104c578251825591602001919060010190611031565b5b50905061105a919061105e565b5090565b61108091905b8082111561107c576000816000905550600101611064565b5090565b90565b600082601f83011261109457600080fd5b81356110a76110a282611531565b611504565b915080825260208301602083018583830111156110c357600080fd5b6110ce8382846115de565b50505092915050565b6000813590506110e681611631565b92915050565b6000602082840312156110fe57600080fd5b600082013567ffffffffffffffff81111561111857600080fd5b61112484828501611083565b91505092915050565b6000806040838503121561114057600080fd5b600083013567ffffffffffffffff81111561115a57600080fd5b61116685828601611083565b925050602083013567ffffffffffffffff81111561118357600080fd5b61118f85828601611083565b9150509250929050565b600080600080608085870312156111af57600080fd5b600085013567ffffffffffffffff8111156111c957600080fd5b6111d587828801611083565b945050602085013567ffffffffffffffff8111156111f257600080fd5b6111fe87828801611083565b935050604061120f878288016110d7565b9250506060611220878288016110d7565b91505092959194509250565b6000806040838503121561123f57600080fd5b600083013567ffffffffffffffff81111561125957600080fd5b61126585828601611083565b9250506020611276858286016110d7565b9150509250929050565b60006020828403121561129257600080fd5b60006112a0848285016110d7565b91505092915050565b60006112b58383611415565b905092915050565b60006112c88261156d565b6112d2818561159b565b9350836020820285016112e48561155d565b8060005b85811015611320578484038952815161130185826112a9565b945061130c8361158e565b925060208a019950506001810190506112e8565b50829750879550505050505092915050565b61133b816115c8565b82525050565b600061134c82611583565b61135681856115bd565b93506113668185602086016115ed565b80840191505092915050565b600061137d82611578565b61138781856115ac565b93506113978185602086016115ed565b6113a081611620565b840191505092915050565b600060808301600083015184820360008601526113c88282611372565b915050602083015184820360208601526113e28282611372565b91505060408301516113f7604086018261147f565b50606083015161140a606086018261147f565b508091505092915050565b600060808301600083015184820360008601526114328282611372565b9150506020830151848203602086015261144c8282611372565b9150506040830151611461604086018261147f565b506060830151611474606086018261147f565b508091505092915050565b611488816115d4565b82525050565b600061149a8284611341565b915081905092915050565b600060208201905081810360008301526114bf81846112bd565b905092915050565b60006020820190506114dc6000830184611332565b92915050565b600060208201905081810360008301526114fc81846113ab565b905092915050565b6000604051905081810181811067ffffffffffffffff8211171561152757600080fd5b8060405250919050565b600067ffffffffffffffff82111561154857600080fd5b601f19601f8301169050602081019050919050565b6000819050602082019050919050565b600081519050919050565b600081519050919050565b600081519050919050565b6000602082019050919050565b600082825260208201905092915050565b600082825260208201905092915050565b600081905092915050565b60008115159050919050565b6000819050919050565b82818337600083830152505050565b60005b8381101561160b5780820151818401526020810190506115f0565b8381111561161a576000848401525b50505050565b6000601f19601f8301169050919050565b61163a816115d4565b811461164557600080fd5b5056fea2646970667358221220ace433745e1dca406f16fb72d571c7d62d36f2b825e8749551a117b100f4238664736f6c63430006040033",
  "source": "pragma solidity >=0.4.22 <0.9.0;\r\npragma experimental ABIEncoderV2;\r\n\r\ncontract Query {\r\n   \r\n    struct row {\r\n        string date;\r\n        string state;\r\n        uint  gender;\r\n        uint age_group;\r\n    }\r\n    uint index;\r\n    mapping (uint => uint[]) genders;\r\n    mapping (string => uint[]) states; \r\n    mapping (uint => uint[]) ages; \r\n    mapping (uint => row) dataset; \r\n    function get(uint ind) public view returns(row memory) {\r\n        return dataset[ind];\r\n        \r\n    }\r\n    function compareStrings(string memory a, string memory b) public view returns (bool) {\r\n        return (keccak256(abi.encodePacked((a))) == keccak256(abi.encodePacked((b))));\r\n    }\r\n\r\n    function insert( string memory date, string memory state,uint gender,uint age_group) public {\r\n        row memory data;\r\n        data.date=date;\r\n        data.state=state;\r\n        data.gender=gender;\r\n        data.age_group=age_group;\r\n        dataset[index]=data;\r\n        \r\n        states[state].push(index);\r\n        genders[gender].push(index);\r\n        ages[age_group].push(index);\r\n        index+=1;\r\n    }\r\n    function getbystate(string memory state) public view returns(row[] memory){\r\n        uint n = states[state].length;\r\n        row[]  memory arr = new row[](n);\r\n        for (uint i=0;i<n;i++){\r\n            arr[i]=dataset[states[state][i]];\r\n        }\r\n        return arr;\r\n        \r\n    }\r\n    function getbystateandgender(string memory state,uint gender) public view returns(row[] memory){\r\n        row[]  memory arr = new row[](index);\r\n        uint j=0;\r\n        for (uint i=0;i<index;i++){\r\n            if(dataset[i].gender==gender && compareStrings(dataset[i].state,state)){\r\n                arr[j++]=dataset[i];\r\n            }\r\n        }\r\n        return arr;      \r\n    }\r\n    function optimized(string memory state,uint gender) public view returns(row[] memory){\r\n        uint n = states[state].length;\r\n        uint m = genders[gender].length;\r\n        if(n<m){\r\n            row[]  memory arr = new row[](n);\r\n            uint ind;\r\n            uint j;\r\n            for (uint i=0;i<n;i++){\r\n                ind = states[state][i];\r\n                if (dataset[ind].gender==gender){\r\n                    arr[j++]=dataset[ind];\r\n                }\r\n                \r\n            }\r\n            return arr;\r\n        }\r\n        else{\r\n            row[]  memory arr = new row[](m);\r\n            uint ind;\r\n            uint j;\r\n            for (uint i=0;i<m;i++){\r\n                ind = genders[gender][i];\r\n                if (compareStrings( dataset[ind].state,state)){\r\n                    arr[j++]=dataset[ind];\r\n                }\r\n            }\r\n            return arr;\r\n        }\r\n    }\r\n    \r\n}",
  "sourcePath": "C:/Users/Aniket/onchain/src/contracts/Query.sol",
  "compiler": {
    "name": "solc",
    "version": "0.6.4+commit.1dca32f3.Emscripten.clang"
  },
  "schemaVersion": "3.3.4",
  "updatedAt": "2021-04-09T06:45:39.112Z",
  "networkType": "ethereum",
  "devdoc": {
    "methods": {}
  },
  "userdoc": {
    "methods": {}
  }
}